:020000040000FA
:1000000058080020C1000000C90E00003D0E00008D
:10001000FFFFFFFFFFFFFFFFFFFFFFFFFFFFFFFFF0
:10002000FFFFFFFFFFFFFFFFFFFFFFFFF70E0000D7
:10003000FFFFFFFFFFFFFFFFF50E00003301000091
:1000400035010000350100003501000035010000D8
:1000500035010000350100003501000035010000C8
:1000600085080000FFFFFFFF35010000350100009B
:10007000B10D00003501000035010000FFFFFFFF5A
:10008000FFFFFFFFB9090000350100003501000046
:100090003501000035010000350100003501000088
:1000A00035010000D5100000D51200003501000018
:1000B0003501000035010000350100003501000068
:1000C0001D4880471D4880471D4800471D4801695D
:1000D000002908D14169002905D18169002902D18F
:1000E000C169002909D01848C1680901090D002912
:1000F0000ED005290CD006290AD0BFF34F8F134824
:100100001349016013491248C860BFF34F8FFEE7DF
:100110000E4801680E48884200D070470E480F49CB
:1001200001600A480E4901607047FEE7FEE7FEE7FE
:10013000FEE7FEE7FEE70000CD000000F90E00003C
:100140006501000000030840800108400000002015
:100150000400FA0500ED00E0008108400100000005
:10016000000000000348854600F0FEFA0048004702
:10017000CD1700005808002030B50B46014600207E
:100180002022012409E00D46D5409D4205D31D469D
:100190009540491B2546954040191546521E002D95
:1001A000F1DC30BDF8B500242546002904DA0E46FE
:1001B000012400214042B141002B04DA1E460023F5
:1001C00052420125B34100F0FEF98C4617461E4607
:1001D000AC4203D0002540428D41AC46002C02D0F9
:1001E000002657429E4161463A46334601B0F0BD73
:1001F000F8B502464A40D40F42004B0052085B0853
:100200009A4202D20246084611464A0023D0C30D44
:100210004A00DDB2120EAD1A202D35DA4902012650
:10022000490AF6058A19002C00D0524220214F1BA2
:100230001146B9402A411018C20D9A4221D0002C13
:1002400017D0012D08DCDA05801AD20F8019D207E9
:10025000DBB200F0F0F9F8BDDA05801A01234000A6
:100260001B06C01880185A428018CA0F1043490054
:1002700007E04908C2071143DA05801A80194008CF
:10028000801800F0D0F9F8BD61000122511A001B5E
:10029000F7E70122D2075140AAE70122D2075040D6
:1002A000A6E7024670B54A40D30FDB0740002DD0C9
:1002B0004A002AD0010E140E000212020919400A47
:1002C000520A8418E50104465443000A120A2E0417
:1002D0005043A4194219200CC543AA18120C012539
:1002E000AD03521C521912047F39240400D0521C51
:1002F000104301D44000491EC2B20C06C0092018A8
:10030000401C4008802A02D003E0002070BD400855
:100310004000002900DA0020184370BDF0B51FB47A
:1003200088B00B990998002448400999C00F4900EA
:1003300049080991C0070B990090490049080B91A1
:1003400009990898A64608431CD00B990A980843B7
:1003500018D0099801244000420D4800410D099829
:1003600024050003000B204309900B980003000BA9
:1003700020430B9050181C4940180022019014464D
:10038000104605E0002001460DB0F0BD032801DA5B
:10039000034600E003239C46C11A0AAE0AE05F0050
:1003A00008ADED5B4F00F75B7D430027AA187C4149
:1003B000491C5B1E6145F2DD410004AB5A52210429
:1003C000120C0A43240C401C0828DFDB0198029021
:1003D0000099704601910090059B049A0799069830
:1003E00000F06FF9D0E700000DFCFFFFF0B50C4600
:1003F0005C4085B0E40FE40703944C0000266408D9
:1004000059009446490802460296224321D062468A
:100410000A431ED06200570D4A000E032303550DF8
:10042000012402462C492405781B1B0B360B40186F
:1004300023432643614600901C46501AB44103D31F
:100440000098401C009002E0921800985B41002840
:1004500003DA0020014605B0F0BD002001210905A6
:100460000746864611E064461D46141BB54106D377
:100470006546521BB341744607430C43A646CD075D
:1004800040084908284392185B4105460D43EAD1CC
:100490001046184313D06046194650407140084337
:1004A00006D06046101AB34106D20122002306E0AE
:1004B00000220123DB0702E00122D24353100098FF
:1004C00074460105381C6141029C039D0019694175
:1004D00000F0EAF8BFE70000FD03000070B54B0034
:1004E0005B0803430BD04B005C0D0026334665428E
:1004F000B341D417AD1AA34102DB0020014670BD01
:1005000012053018514170BD10B5002296231146D6
:1005100000F091F810BD00000EB5054902910021D0
:1005200000910A460B46019100F0CBF803B000BDE4
:1005300033040000C20F410040020123400ADB05E2
:10054000D207090EC0187F2901DA002070479629CA
:1005500003DC9623591AC84001E096398840002AE6
:10056000F4D040427047410040020122400AD205C7
:10057000090E80187F2901DA00207047962903DCD4
:100580009622511AC8407047963988407047CB0F61
:10059000DB07490010B5490802460A4307D00A0D97
:1005A00007240903E401090B121B002A01DC0020C7
:1005B00010BDC900440F0C43C100E018D2058018DB
:1005C00000F031F810BDF0B51FB40646002082B02F
:1005D00005464024019100901BE0019922460F46F8
:1005E000304600F0E3F8049A059B801A994110D335
:1005F00010461946224600F0C9F8361A8F41019775
:10060000224601200021009F00F0C0F838184D411B
:1006100000902046641E0028DFDC019B00982946DC
:10062000324607B0F0BD002904DA401C490001D170
:1006300040084000704770B40024050C05D1102418
:10064000000402D1002921D01124050E01D100029D
:100650000834050F01D10001241D850F01D1800050
:10066000A41C002801DB4000641C002908D02025C0
:100670002E1B0D46F540A14000D00121294308431F
:1006800001061B1B000ADB1D02D5002070BC704751
:10069000DB05181880180029F8DA401C4900F5D14C
:1006A00070BC40084000704710B5002B08DA0024E9
:1006B000401C614192185B411A4301D1400840003F
:1006C00010BDF0B51FB482B005460C0003D008463B
:1006D00000F0D1FE02E000F0CEFE20300246009095
:1006E0002146284600F052F8049B059A04460F461E
:1006F00018431143084314D0184610431BD00098E8
:1007000040210A1A1846059900F050F805460E4691
:10071000009A0599049800F039F8084305D00120A3
:1007200004E02046394607B0F0BD0020C11705435C
:100730000E432C43374300990E986305401A790500
:10074000E40A00220C43FD0A0A3002D500200146CB
:10075000E9E70105101969410C9C0D9D00196941DB
:10076000FFF7A2FFDFE70000064C0125064E05E07B
:10077000E36807CC2B430C3C98471034B442F7D3C2
:10078000FFF7F4FCF41B0000141C000010B5202A35
:1007900004DB0146203A9140002010BD9140202307
:1007A0009C1A0346E3401943904010BD10B5202A1F
:1007B00004DB0846203AD040002110BD0B46D34050
:1007C000D0402024A21A91400843194610BD803021
:1007D000C160704780220029016801D0114300E008
:1007E000914301607047000070B50024012022464B
:1007F00080040123114600F079F901256D020022E1
:100800002946174800F05EFA69018A020123204652
:1008100000F06CF902222946104600F073F8062118
:10082000102000F077F90F4C0023012219462046D2
:1008300000F047F80021204600F057F800220B2175
:10084000204600F030F80121204600F047F8012250
:100850001146204600F01EF80349A015086070BD3F
:1008600000400B400000014000E100E08900081852
:10087000006B80B2704780304068084000D0012093
:100880007047000010B501210148FFF7A0FF10BD1F
:10089000000001408030002A026801D00A4300E0D5
:1008A0008A4302607047930810B59B00181843688C
:1008B0009207D20E1F249440A34391400B43436000
:1008C00010BD5B1E12021B04FF3A013A13430B4397
:1008D0000168802211400B4303607047CA06D20EA4
:1008E0000267490949014167704701627047002961
:1008F000416F02D00122114301E0490849004167DC
:1009000070470000F0B596460A461349C0004618E5
:1009100000230025FF2098402C46104216D00020CE
:10092000012199408C461146C1406746394206D0A4
:1009300087000F21B9400D437146B9400C43401C5C
:100940000828F0D33068A843204330600833361DB0
:10095000082BDEDDF0BD00002020024070B5002530
:100960000122294612040123084600F0BFF80120A5
:100970000E49400408600E4C0121204600F03AF870
:100980000C487D22D200006800232946FFF70AFCAC
:100990000146204600F038F80021204600F036F8E5
:1009A0000121204600F01DF870BD000000E100E0CC
:1009B000006007403000002010B5044800F00AF83D
:1009C00003480168491C016010BD00000060074039
:1009D000200000204168490849004160BFF34F8F63
:1009E000704704220029016801D0114300E09143BF
:1009F000016070470029016802D00122114301E023
:100A00004908490001607047C160704781607047C4
:100A100070B5184D0446686B4607760F00F02EF847
:100A200015492060330000F03DFD08140507071448
:100A3000140E1114606000E06160296A6068052985
:100A400009D3400908E00120C003F3E77D2000023C
:100A5000F0E70020EEE7C840A060A96A4903490F0B
:100A6000072902D0C840E06070BD0321FFF784FB76
:100A7000F9E700000080084000127A000C4908687D
:100A8000C869C20F4868400AC007C00F0ED00948A5
:100A9000002A0BD18869C00D0007000F00D110207B
:100AA0008969044A4902890F5043C84070470000D1
:100AB0000080084000127A001FB541090A4A8900E7
:100AC0008A1800212E2800D10221C006C00E12680B
:100AD000032383401A40C24054186846FFF798FF2A
:100AE000029804B0E04010BD38800840F0B5084FCF
:100AF0007C6AFD6A3E6B84438D439643002B02D093
:100B000004430D4316437C62FD623E63F0BD00006A
:100B10000080084010B5044CA26A072383409A4322
:100B200081400A43A26210BD008008408162704784
:100B300070B5072001210022000489030123FFF77B
:100B4000D5FF5D4C01212046FFF7F0FF0122114641
:100B5000204600F0B7F802212046FFF7E7FF012208
:100B60000221204600F0AEF804212046FFF7DEFF08
:100B700001220421204600F0A5F808212046FFF7B5
:100B8000D5FF01220821204600F09CF810212046C4
:100B9000FFF7CCFF01221021204600F093F820211E
:100BA0002046FFF7C3FF01222021204600F08AF8EB
:100BB00040212046FFF7BAFF01224021204600F0E5
:100BC00081F880212046FFF7B1FF012280212046D5
:100BD00000F078F8A615394C31462046FFF7A6FFFD
:100BE00001223146204600F06DF8354D012128469E
:100BF000FFF79CFF01221146284600F063F802210E
:100C00002846FFF793FF01220221284600F05AF8F8
:100C100004212846FFF78AFF01220421284600F01C
:100C200051F810212846FFF781FF012210212846A4
:100C300000F048F820212846FFF778FF0122202104
:100C4000284600F03FF840212846FFF76FFF0122B9
:100C50004021284600F036F880212846FFF766FF3D
:100C600001228021284600F02DF831462846FFF762
:100C70005DFF01223146284600F024F87601314616
:100C80002046FFF753FF01223146204600F022F8AC
:100C900000223146204600F015F808212846FFF7CB
:100CA00045FF01220821284600F014F800220821FF
:100CB000284600F007F870BD00000B4000400B40D4
:100CC00000200B40002A026801D00A4300E08A435A
:100CD00002607047002A426801D00A4300E08A435C
:100CE00042607047002A08D0012A09D082688A43EE
:100CF0008260C2688A43C260704782680A43F7E72D
:100D0000C2680A43C26082688A4382607047C069D1
:100D1000084000D00120704741627047F0B50024C0
:100D20002546FF260136294685B03246012308466E
:100D3000FFF7DCFE1A487D22D20000680023294616
:100D4000FFF730FA401E174F049000E0641C611C4E
:100D50000498FFF711FAB842F8D8611C0498FFF71D
:100D60000BFA6A461080548015710F4C02959681DB
:100D70006946204600F056F93146204600F03AF91F
:100D800001223146204600F044F90121074A0903B7
:100D900011600121204600F032F905B0F0BD0000DD
:100DA00030000020FFFF000000E0064000E100E00E
:100DB00010B5FF210131064800F01CF90548016813
:100DC000491C01600168642901D90021016010BD3E
:100DD00000E006402400002070B50025134E2C468C
:100DE00001213046FFF783FD01213046FFF743FD27
:100DF0000028F9D100213046FFF738FD641C451961
:100E0000E4B20A2CECD32846FFF786FB084A094BCC
:100E1000FFF784FA0B22D243FFF760FB0022064B58
:100E2000FFF7E4FAFFF7B3FB70BD000000000140DC
:100E30006666666666661A4000002440FEE70000AB
:100E400010B5FFF775FEFFF789FDFFF7CDFC00F049
:100E50007DFC012000F09CFB184C01212046FFF78F
:100E6000B9FC01212046FFF742FD00F0FBF800F03D
:100E7000FBF9FFF753FF124C204600F043FC04201F
:100E800000F086FB204600F03DFC032000F080FBD4
:100E9000204600F037FC022000F07AFB204600F0EC
:100EA00031FC012000F074FB064800210161417013
:100EB0008170C170C1600171417110BD00000140BD
:100EC000A086010000000020FEE70000C106C90E58
:100ED00001208840014908607047000080E100E07F
:100EE000C106C90E01208840014908607047000012
:100EF00000E100E0FEE7FEE7F0B539491020C860E8
:100F0000384A012010603849086B4025284308639F
:100F10003648002344158668272EFCD100E0446043
:100F20004668B605FBD500E043604668B605FBD4CD
:100F30001360486A03229202904348624868012283
:100F4000D202104348608868C008C007FBD04868D8
:100F5000C008C000C01C4860486B4007400F032811
:100F6000FAD1234A1068C008C000401C10600B6210
:100F70004868A04348600868961530430860486890
:100F800017153843486088688008C007FBD0086B95
:100F9000A84308630868B04308600320000688611E
:100FA00048682043486088684008C007FBD0106844
:100FB000C008C000801C10600B624868C008C000F8
:100FC000401C4860486B4007400F0128FAD1106868
:100FD0001021084310601068090208431060F0BD3A
:100FE00000810840008308400080084000A10640BE
:100FF00000020840C943C167BFF34F8F7047002903
:10100000016902D00122114301E049084900016150
:101010007047002A426F01D00A4300E08A434267CA
:101020007047000010B502460B88803293604B88F1
:101030005360036803242404A3430360036801246A
:101040002406A343036003688C6823430360044BB6
:10105000984201D10B79D3608989816710BD000066
:1010600000C002403EB5002411212246890201231E
:101070001046FFF73BFD062210210220FFF742FC3D
:10108000062220210220FFF73DFCE12040020090D3
:10109000FF20013069468880CC800C814C810C4C4B
:1010A000204600F08FF901221146204600F0D9F9C0
:1010B00001220021204600F0D4F9012211462046E9
:1010C00000F0C2F91920FFF70BFF00F095F83EBDC4
:1010D00000100040F8B51B4E3069C00519D51A4CF8
:1010E000A088002828D00025E71FF93F6088395CD8
:1010F000304600F0B4F9A078401CC0B26080A088EF
:10110000401E0004000CA08003D06D1C2D042D0C8B
:10111000ECD03169304689060DD500F09DF90B49B8
:101120000A88CB1FF93B98540878401CC0B208804D
:101130008888401C8880F8BD00220421304600F0D9
:1011400083F9E6E7001000403C0200203401002053
:1011500010B5274CA188A078042901D2002010BD29
:10116000244A115C002925D1411CC9B2515C0329D4
:1011700020D1801CC0B2115C1D488078C01CC0B258
:10118000012902D0002912D014E0105C002811D1EE
:101190001920FFF79BFEA078001DC0B26080A088D8
:1011A000001FA0801920FFF79BFE012010BD105CDE
:1011B00000280DD01920FFF789FEA078401CC0B28E
:1011C0006080A088401EA0801920FFF789FEC5E737
:1011D0001920FFF77BFEA078001DC0B26080A088B8
:1011E000001FA0801920FFF77BFE022010BD000029
:1011F0003401002034000020054900204880088088
:101200008880FF310931488008808880704700005D
:1012100034010020F8B5124C0D46E71F0646F93F91
:1012200010E02188307878542078761C401CC0B2B9
:1012300020801920FFF74AFEA088401CA0801920BA
:10124000FFF74EFE28466D1EEDB20028E9D1A088BA
:10125000002804D001220421024800F0F5F8F8BD6E
:101260003C020020001000403EB500240921224627
:10127000C90201231046FFF739FC012106220903A8
:101280000220FFF73FFBE12040020090FF200130E9
:1012900069468880CC800C814C810C4C204600F043
:1012A00091F801221146204600F0DBF801220021CE
:1012B000204600F0D6F801221146204600F0C4F87E
:1012C0000349A003086000F043F83EBD001004404D
:1012D00000E100E0F8B51B4E3069C00519D51A4C85
:1012E000A088002828D00025E71FF93F6088395CD6
:1012F000304600F0B4F8A078401CC0B26080A088EE
:10130000401E0004000CA08003D06D1C2D042D0C89
:10131000ECD03169304689060DD500F09DF80B49B7
:101320000A88CB1FF93B98540878401CC0B208804B
:101330008888401C8880F8BD00220421304600F0D7
:1013400083F8E6E7001004404C040020440300202A
:1013500005490020488008808880FF310931488095
:1013600008808880704700004403002070B5114A4F
:1013700012E01488104D03782B5513780F4C5B1C2A
:10138000DBB2138001239B0623609488641C948045
:101390000A4C803C2360401C0B46491EC9B2002BFE
:1013A000E7D19088002804D001220421044800F0ED
:1013B0004BF870BD4C0400204C03002080E100E09D
:1013C0000010044070B504460D46C88889886268DC
:1013D00008432989184B1A40114308436989084377
:1013E000606001208007844206D11820FFF764FB6B
:1013F0002968FEF7C1FE60621048844206D11A20B7
:10140000FFF75AFB2968FEF7B7FE60620C4884427A
:1014100006D11C20FFF750FB2968FEF7ADFE606285
:101420000848844206D11E20FFF746FB2968FEF7D4
:10143000A3FE606270BD0000FCE0FFFF00000440FE
:101440000010004000100440002AC26801D00A4386
:1014500000E08A43C2607047006880B27047016054
:10146000704710238B404168002A01D0194300E0E7
:101470009943416070472021020C01D01021104691
:10148000020A01D010460839020901D01046091F8E
:10149000820801D01046891E420801D0881E70477C
:1014A000081A704730B47446641E2578641CAB4239
:1014B00000D21D46635D5B00E31830BC184702E0B4
:1014C00008C8121F08C1002AFAD1704770470020CF
:1014D00001E001C1121F002AFBD1704710B5FFF7D0
:1014E0007BFC0C4908610C49884201DD012005E0C4
:1014F0000A490B4A4118914203D8022000F048F8EB
:1015000010BD084940180849884201D20320F5E778
:101510000420F3E70000002033337340FFFF9FBF38
:1015200032331300CCCCACBFCCCC0C0070B508214E
:101530001448FFF7ECFB002822D013480069054649
:10154000FEF7F8FFC4B22046FEF7DEFF2946FEF79D
:10155000A4FE0E49FEF7A5FEFFF705F80A4919316A
:10156000CC700871084807211930FFF7FFFE0649C3
:10157000022014318870044805211430FFF7F6FE6C
:1015800070BD000000200B40000000200000204142
:10159000F8B51E4A1E4C95151E4E012816D002287D
:1015A00019D0032828D004280FD170211046FFF746
:1015B000BDFA40212046FFF7AFFB80212046FFF710
:1015C000B5FA29463046FFF7B1FAF8BD702110464A
:1015D000FFF7A2FB0AE0302117461046FFF79CFBFD
:1015E00080212046FFF798FB40210BE08021204618
:1015F000FFF792FB4021E1E7102117461046FFF765
:101600008BFB60213846FFF791FAEFE700200B4093
:1016100000000B4000400B4010B5FFF799FD00287B
:1016200008D00749012807D0022802D18878401C39
:10163000887010BD00BF10BD0120087110BD0000F2
:1016400000000020F8B501262A4F760331463846BF
:10165000FFF75DFB284C002802D0E078002832D04C
:10166000642000F04FF831463846FFF750FB002861
:1016700002D0E078002826D0E0680125401CE06018
:10168000E57031463846FFF742FB00281BD00021A9
:10169000E1702079194E1A4F002815D000F038FA61
:1016A000607803280FD908213046FFF735FB8021E9
:1016B0003846FFF731FB29023846FFF737FA342165
:1016C0003046FFF733FAF8BD2571A07803280AD910
:1016D00024213046FFF720FBFF2181313846FFF7F8
:1016E00025FA1821ECE704480222801D427081701F
:1016F000C170F8BD00400B400000002000000B400E
:1017000000200B4004E0002100BF491C0929FBD345
:10171000401EF8D2704704E0002100BF491C032995
:10172000FBD3401EF8D2704707480179002909D041
:101730004179002906D0002141708170C170C160DB
:1017400001714171704700000000002070B5002455
:1017500001202246000401231146FFF7C7F9184D66
:101760000122C0212846FFF7ADFA0122C0212846F8
:10177000FFF7B8FA03202246000401231146FFF7C1
:10178000B5F9104D012270212846FFF79BFA01227E
:1017900070212846FFF7A6FA0720224600040123FD
:1017A0001146FFF7A3F90122074D140221462846EE
:1017B000FFF788FA012221462846FFF793FA70BD09
:1017C00000000B4000200B4000400B40FFF738FBAF
:1017D0001A4D1B4E1B4C20680A2802D2FFF7A4FFAB
:1017E000F9E72068092805D92068142802D2FFF7F4
:1017F0009DFEF0E72068132805D920681E2802D234
:10180000FFF70AFFE7E720681D2805D92068502860
:1018100002D2FFF717FFDEE720684F2808D92068BB
:101820005A2805D2E868B042D5D9FFF7CFFFD2E7F2
:1018300020685928CFD9FFF751FECCE700000020DF
:10184000102700002400002070B500F0E1F800200F
:1018500000F0ACF9072000F0A9F900F0D9F8012058
:1018600000F0A4F90A4C0025657000F073F8E070F0
:10187000657000F06FF8A0700120607000F06AF8E9
:10188000207100F00DF9A078E1780002401870BDD9
:101890002800002070B52D4C022060620146012214
:1018A0002046FFF717FA002202212046FFF70AFA26
:1018B000274E0125357065622846FFF72CFF012071
:1018C000FFF729FF0120FFF726FF0120FFF723FF85
:1018D0000120FFF720FF0120FFF71DFF0120FFF788
:1018E0001AFF0120FFF717FF02212046FFF70FFA2A
:1018F000002801D0357001E0002030700022022164
:101900002046FFF7E7F9012202212046FFF7DAF926
:101910000120FFF700FFA5620120FFF7FCFE012078
:10192000FFF7F9FE0120FFF7F6FE0120FFF7F3FEB7
:101930000120FFF7F0FE0120FFF7EDFE0120FFF789
:10194000EAFE0120FFF7E7FE70BD000000000B403B
:101950002800002070B50024094E25466006040EBC
:10196000FFF798FF3078012801D1641CE4B26D1CA8
:10197000EDB2082DF2D300F005F8204670BD00004E
:101980002800002000B52048204A41780220002984
:1019900037D050620120FFF7BEFE01235362184684
:1019A000FFF7B9FE0120FFF7B6FE0120FFF7B3FEF7
:1019B0000120FFF7B0FE0120FFF7ADFE0120FFF789
:1019C000AAFE0120FFF7A7FE0120FFF7A4FE936205
:1019D0000120FFF7A0FE0120FFF79DFE0120FFF789
:1019E0009AFE0120FFF797FE0120FFF794FE0120E9
:1019F000FFF791FE0120FFF78EFE0120FFF78BFE1F
:101A000000BD9062C6E700002800002000000B40E7
:101A100010B5224A022353620120FFF77CFE012009
:101A2000FFF779FE0120FFF776FE0120FFF773FE36
:101A30000120FFF770FE012454622046FFF76BFE81
:101A40000120FFF768FE0120FFF765FE0120FFF788
:101A500062FE0120FFF75FFE93620120FFF75BFE4D
:101A60000120FFF758FE0120FFF755FE0120FFF788
:101A700052FE0120FFF74FFE94620120FFF74BFE5C
:101A80000120FFF748FE0120FFF745FE0120FFF788
:101A900042FE0120FFF73FFE10BD000000000B409A
:101AA00010B51A4A012393621846FFF734FE01204D
:101AB000FFF731FE0120FFF72EFE0120FFF72BFE7E
:101AC0000120FFF728FE022494620120FFF723FE85
:101AD0000120FFF720FE0120FFF71DFE0120FFF788
:101AE0001AFE0120FFF717FE53620120FFF713FED5
:101AF0000120FFF710FE0120FFF70DFE0120FFF788
:101B00000AFE0120FFF707FE546210BD00000B40E3
:101B100070B500F03FF81D4C1D4D2070B42808D959
:101B200008212846FFF7F8F830212846FEF7FEFF87
:101B300012E0A02814D220212846FFF7EDF8182142
:101B40002846FEF7F3FF11490320143188700F482F
:101B500005211430FFF70AFC6078401C607070BDEE
:101B600010212846FFF7D8F828212846FEF7DEFF87
:101B7000064801216171801D41700021817021782A
:101B8000C1700421FFF746FB70BD0000000000207B
:101B900000000B4010B5FFF757FE0521FEF7ECFAE9
:101BA00001494018C0B210BD8EF4FFFFF1B5104FCF
:101BB0000A26009C0025200601D5012000E0002017
:101BC0007870FFF7DFFE60066D1C040EEDB2082D85
:101BD000F1D3FFF75FFE3878012808D1FFF760FFE7
:101BE000002E04D0761EF6B2FFF712FFE1E7F8BD33
:101BF00028000020141C0000000000203400000019
:101C0000BE140000481C000034000020240800001E
:101C1000CE140000000000000000000000000000E2
:101C20000000000000000000AA550055AAAA5501B6
:101C3000000055AA000000000000000000000000A5
:081C400000000000006CDC0252
:04000005000000C136
:00000001FF
