:020000040000FA
:1000000058080020C1000000350D0000A50C0000BC
:10001000FFFFFFFFFFFFFFFFFFFFFFFFFFFFFFFFF0
:10002000FFFFFFFFFFFFFFFFFFFFFFFF4F0D000080
:10003000FFFFFFFFFFFFFFFF4D0D0000330100003A
:1000400035010000350100003501000035010000D8
:1000500035010000350100003501000035010000C8
:10006000ED060000FFFFFFFF350100003501000035
:10007000190C00003501000035010000FFFFFFFFF3
:10008000FFFFFFFF210800003501000035010000DF
:100090003501000035010000350100003501000088
:1000A000350100002D0F0000AD10000035010000EB
:1000B0003501000035010000350100003501000068
:1000C0001D4880471D4880471D4800471D4801695D
:1000D000002908D14169002905D18169002902D18F
:1000E000C169002909D01848C1680901090D002912
:1000F0000ED005290CD006290AD0BFF34F8F134824
:100100001349016013491248C860BFF34F8FFEE7DF
:100110000E4801680E48884200D070470E480F49CB
:1001200001600A480E4901607047FEE7FEE7FEE7FE
:10013000FEE7FEE7FEE70000CD000000510D0000E5
:100140006501000000030840800108400000002015
:100150000400FA0500ED00E0008108400100000005
:10016000000000000348854600F032FA00480047CE
:10017000D11500005808002030B50B46014600207C
:100180002022012409E00D46D5409D4205D31D469D
:100190009540491B2546954040191546521E002D95
:1001A000F1DC30BDF8B500242546002904DA0E46FE
:1001B000012400214042B141002B04DA1E460023F5
:1001C00052420125B34100F033F98C4617461E46D2
:1001D000AC4203D0002540428D41AC46002C02D0F9
:1001E000002657429E4161463A46334601B0F0BD73
:1001F000F0B51FB488B00B990998002448400999BC
:10020000C00F490049080991C0070B9900904900A7
:1002100049080B9109990898A64608431CD00B99E8
:100220000A98084318D0099801244000420D48005C
:10023000410D099824050003000B204309900B98F9
:100240000003000B20430B9050181C49401800225B
:1002500001901446104605E0002001460DB0F0BDA7
:10026000032801DA034600E003239C46C11A0AAEC4
:100270000AE05F0008ADED5B4F00F75B7D430027B0
:10028000AA187C41491C5B1E6145F2DD410004ABAC
:100290005A522104120C0A43240C401C0828DFDBAC
:1002A000019802900099704601910090059B049A74
:1002B0000799069800F03AF9D0E700000DFCFFFF1F
:1002C000F0B50C465C4085B0E40FE40703944C00A5
:1002D00000266408590094464908024602962243C3
:1002E00021D062460A431ED06200570D4A000E0319
:1002F0002303550D012402462C492405781B1B0BB2
:10030000360B401823432643614600901C46501A82
:10031000B44103D30098401C009002E0921800986A
:100320005B41002803DA0020014605B0F0BD002043
:10033000012109050746864611E064461D46141B47
:10034000B54106D36546521BB341744607430C437F
:10035000A646CD0740084908284392185B41054648
:100360000D43EAD11046184313D060461946504059
:100370007140084306D06046101AB34106D20122EC
:10038000002306E000220123DB0702E00122D24322
:100390005310009874460105381C6141029C039D6E
:1003A0000019694100F0B5F8BFE70000FD03000047
:1003B00070B54B005B0803430BD04B005C0D00266F
:1003C00033466542B341D417AD1AA34102DB002086
:1003D000014670BD12053018514170BD0EB505497A
:1003E0000291002100910A460B46019100F09EF80F
:1003F00003B000BD33040000CB0FDB07490010B58C
:10040000490802460A4307D00A0D07240903E401FC
:10041000090B121B002A01DC002010BDC900440F8B
:100420000C43C100E018D205801800F031F810BD6F
:10043000F0B51FB40646002082B005464024019165
:1004400000901BE0019922460F46304600F0E2F88A
:10045000049A059B801A994110D3104619462246EA
:1004600000F0C8F8361A8F4101972246012000217A
:10047000009F00F0BFF838184D4100902046641EE0
:100480000028DFDC019B00982946324607B0F0BD0A
:10049000002904DA401C490001D14008400070479F
:1004A00070B40024050C05D11024000402D10029E9
:1004B00021D01124050E01D100020834050F01D10D
:1004C0000001241D850F01D18000A41C002801DB40
:1004D0004000641C002908D020252E1B0D46F54045
:1004E000A14000D001212943084301061B1B000A3B
:1004F000DB1D02D5002070BC7047DB051818801882
:100500000029F8DA401C4900F5D170BC40084000D1
:10051000704710B5002B08DA0024401C6141921886
:100520005B411A4301D14008400010BDF0B51FB433
:1005300082B005460C0003D0084600F088FE02E0B9
:1005400000F085FE2030024600902146284600F04B
:1005500051F8049B059A04460F461843114308437B
:1005600014D0184610431BD0009840210A1A184690
:10057000059900F04FF805460E46009A0599049833
:1005800000F038F8084305D0012004E02046394641
:1005900007B0F0BD0020C11705430E432C4337437D
:1005A00000990E986305401A7905E40A00220C436D
:1005B000FD0A0A3002D500200146E9E701051019BD
:1005C00069410C9C0D9D00196941FFF7A2FFDFE70F
:1005D000064C0125064E05E0E36807CC2B430C3C96
:1005E00098471034B442F7D3FFF7C0FD081A000053
:1005F000281A000010B5202A04DB0146203A914059
:10060000002010BD914020239C1A0346E34019436B
:10061000904010BD10B5202A04DB0846203AD04097
:10062000002110BD0B46D340D0402024A21A914097
:100630000843194610BD8030C160704780220029F0
:10064000016801D0114300E0914301607047000050
:1006500070B500240120224680040123114600F0D9
:1006600079F901256D0200222946174800F05EFA4B
:1006700069018A020123204600F06CF90222294612
:10068000104600F073F80621102000F077F90F4CA7
:10069000002301221946204600F047F80021204699
:1006A00000F057F800220B21204600F030F801211D
:1006B000204600F047F801221146204600F01EF8BF
:1006C0000349A015086070BD00400B4000000140C8
:1006D00000E100E089000818006B80B270478030AC
:1006E0004068084000D001207047000010B501218B
:1006F0000148FFF7A0FF10BD000001408030002A34
:10070000026801D00A4300E08A4302607047930800
:1007100010B59B00181843689207D20E1F2494400E
:10072000A34391400B43436010BD5B1E12021B04A8
:10073000FF3A013A13430B430168802211400B43F7
:1007400003607047CA06D20E026749094901416732
:100750007047016270470029416F02D001221143A6
:1007600001E049084900416770470000F0B596462E
:100770000A461349C000461800230025FF20984070
:100780002C46104216D00020012199408C4611467B
:10079000C1406746394206D087000F21B9400D435A
:1007A0007146B9400C43401C0828F0D33068A84378
:1007B000204330600833361D082BDEDDF0BD00001D
:1007C0002020024070B50025012229461204012391
:1007D000084600F0BFF801200E49400408600E4CA6
:1007E0000121204600F03AF80C487D22D200006832
:1007F00000232946FFF7D6FC0146204600F038F8D2
:100800000021204600F036F80121204600F01DF8B6
:1008100070BD000000E100E00060074030000020F3
:1008200010B5044800F00AF803480168491C01604B
:1008300010BD00000060074020000020416849080A
:1008400049004160BFF34F8F7047042200290168BF
:1008500001D0114300E09143016070470029016815
:1008600002D00122114301E04908490001607047AC
:10087000C16070478160704770B5184D0446686B61
:100880004607760F00F02EF815492060330000F07F
:10089000F5FC081405070714140E1114606000E03D
:1008A0006160296A6068052909D3400908E00120D0
:1008B000C003F3E77D200002F0E70020EEE7C84028
:1008C000A060A96A4903490F072902D0C840E06027
:1008D00070BD0321FFF750FCF9E7000000800840DD
:1008E00000127A000C490868C869C20F4868400ABB
:1008F000C007C00F0ED00948002A0BD18869C00D6F
:100900000007000F00D110208969044A4902890FAD
:100910005043C840704700000080084000127A0031
:100920001FB541090A4A89008A1800212E2800D1E2
:100930000221C006C00E1268032383401A40C24041
:1009400054186846FFF798FF029804B0E04010BDC5
:1009500038800840F0B5084F7C6AFD6A3E6B8443DE
:100960008D439643002B02D004430D4316437C6213
:10097000FD623E63F0BD00000080084010B5044CED
:10098000A26A072383409A4381400A43A26210BDB2
:10099000008008408162704770B507200121002265
:1009A000000489030123FFF7D5FF5D4C0121204698
:1009B000FFF7F0FF01221146204600F0B7F80221B0
:1009C0002046FFF7E7FF01220221204600F0AEF8A3
:1009D00004212046FFF7DEFF01220421204600F01B
:1009E000A5F808212046FFF7D5FF0122082120465F
:1009F00000F09CF810212046FFF7CCFF01221021C7
:100A0000204600F093F820212046FFF7C3FF012283
:100A10002021204600F08AF840212046FFF7BAFF47
:100A200001224021204600F081F880212046FFF776
:100A3000B1FF01228021204600F078F8A615394C3C
:100A400031462046FFF7A6FF01223146204600F03E
:100A50006DF8354D01212846FFF79CFF0122114614
:100A6000284600F063F802212846FFF793FF012291
:100A70000221284600F05AF804212846FFF78AFF91
:100A800001220421284600F051F810212846FFF7E2
:100A900081FF01221021284600F048F82021284635
:100AA000FFF778FF01222021284600F03FF840217F
:100AB0002846FFF76FFF01224021284600F036F854
:100AC00080212846FFF766FF01228021284600F09A
:100AD0002DF831462846FFF75DFF012231462846B2
:100AE00000F024F8760131462046FFF753FF01223B
:100AF0003146204600F022F800223146204600F020
:100B000015F808212846FFF745FF0122082128464D
:100B100000F014F800220821284600F007F870BD04
:100B200000000B4000400B4000200B40002A0268F0
:100B300001D00A4300E08A4302607047002A4268FD
:100B400001D00A4300E08A4342607047002A08D07F
:100B5000012A09D082688A438260C2688A43C260DF
:100B6000704782680A43F7E7C2680A43C260826836
:100B70008A4382607047C069084000D001207047F6
:100B800041627047F0B500242546FF26013629460C
:100B900085B0324601230846FFF7DCFE1A487D2265
:100BA000D200006800232946FFF7FCFA401E174FC9
:100BB000049000E0641C611C0498FFF7DDFAB84261
:100BC000F8D8611C0498FFF7D7FA6A461080548061
:100BD00015710F4C029596816946204600F04EF93A
:100BE0003146204600F032F901223146204600F01D
:100BF0003CF90121074A090311600121204600F058
:100C00002AF905B0F0BD000030000020FFFF000011
:100C100000E0064000E100E010B5FF210131064888
:100C200000F014F905480168491C01600168642955
:100C300001D90021016010BD00E006402400002021
:100C400070B50025134E2C4601213046FFF783FD79
:100C500001213046FFF743FD0028F9D1002130463D
:100C6000FFF738FD641C4519E4B20A2CECD3284682
:100C7000FFF7B4FB084A094BFFF7BAFA0B22D2433D
:100C8000FFF796FB0022064BFFF71AFBFFF7B4FBBA
:100C900070BD0000000001406666666666661A4028
:100CA00000002440FEE7000010B5FFF775FEFFF7D7
:100CB00089FDFFF7CDFC00F04BFC012000F022FB8A
:100CC000194C01212046FFF7B9FC01212046FFF70E
:100CD00042FD00F0F3F800F0B3F9FFF753FF134CB7
:100CE000204600F007FC042000F00CFB204600F03A
:100CF00001FC032000F006FB204600F0FBFB022075
:100D000000F000FB204600F0F5FB012000F0FAFAAD
:100D100007480021016141708170C170C16001719B
:100D20008171417110BD000000000140A0860100EA
:100D300000000020FEE70000C106C90E0120884027
:100D4000014908607047000000E100E0FEE7FEE7AF
:100D5000F0B539491020C860384A01201060384980
:100D6000086B4025284308633648002344158668ED
:100D7000272EFCD100E044604668B605FBD500E0B4
:100D800043604668B605FBD41360486A03229202AA
:100D90009043486248680122D20210434860886844
:100DA000C008C007FBD04868C008C000C01C48602D
:100DB000486B4007400F0328FAD1234A1068C00847
:100DC000C000401C10600B624868A043486008687F
:100DD000961530430860486817153843486088689E
:100DE0008008C007FBD0086BA84308630868B043BD
:100DF00008600320000688614868204348608868CE
:100E00004008C007FBD01068C008C000801C1060FC
:100E10000B624868C008C000401C4860486B40072F
:100E2000400F0128FAD110681021084310601068A3
:100E3000090208431060F0BD0081084000830840AB
:100E40000080084000A1064000020840C943C16775
:100E5000BFF34F8F70470029016902D0012211436F
:100E600001E04908490001617047002A426F01D042
:100E70000A4300E08A4342677047000010B502460B
:100E80000B88803293604B885360036803242404EA
:100E9000A3430360036801242406A343036003689B
:100EA0008C6823430360044B984201D10B79D360D3
:100EB0008989816710BD000000C002403EB5002452
:100EC00011212246890201231046FFF743FD062225
:100ED00010210220FFF74AFC062220210220FFF702
:100EE00045FCE12040020090FF20013069468880E7
:100EF000CC800C814C810C4C204600F04FF9012233
:100F00001146204600F099F901220021204600F008
:100F100094F901221146204600F082F91920FFF7CA
:100F20000BFF00F07FF83EBD00100040F8B51B4EEF
:100F30003069C00519D51A4CA088002828D0002592
:100F4000E71FF93F6088395C304600F074F9A078FB
:100F5000401CC0B26080A088401E0004000CA0802D
:100F600003D06D1C2D042D0CECD031693046890660
:100F70000DD500F05DF90B490A88CB1FF93B985459
:100F80000878401CC0B208808888401C8880F8BD62
:100F900000220421304600F043F9E6E7001000404B
:100FA0003C02002034010020F8B51C488178C51FA0
:100FB000F93D6A5C002A26D14A1CD2B2AA5C032AF7
:100FC00021D1891CC9B26C5C01468A788988D31CFE
:100FD0000126121D091F7606114FDBB2D2B289B26B
:100FE000012C02D0002C0BD00DE0EB5C002B0AD1C1
:100FF0003E60428081801920FFF79EFE0620F8BDEA
:10100000EB5C002B01D00020F8BD3E604280818067
:101010001920FFF791FE0720F8BD000034010020E1
:1010200080E100E005490020488008808880FF3189
:101030000931488008808880704700003401002012
:101040003EB5002409212246C90201231046FFF7BC
:1010500081FC0121062209030220FFF787FBE12022
:1010600040020090FF20013069468880CC800C81CE
:101070004C810C4C204600F091F80122114620468C
:1010800000F0DBF801220021204600F0D6F8012212
:101090001146204600F0C4F80349A003086000F0A0
:1010A00043F83EBD0010044000E100E0F8B51B4EDF
:1010B0003069C00519D51A4CA088002828D0002511
:1010C000E71FF93F6088395C304600F0B4F8A0783B
:1010D000401CC0B26080A088401E0004000CA080AC
:1010E00003D06D1C2D042D0CECD0316930468906DF
:1010F0000DD500F09DF80B490A88CB1FF93B985499
:101100000878401CC0B208808888401C8880F8BDE0
:1011100000220421304600F083F8E6E70010044086
:101120004C0400204403002005490020488008802A
:101130008880FF310931488008808880704700002E
:101140004403002070B5114A12E01488104D037852
:101150002B5513780F4C5B1CDBB2138001239B06CD
:1011600023609488641C94800A4C803C2360401C5B
:101170000B46491EC9B2002BE7D19088002804D045
:1011800001220421044800F04BF870BD4C040020FB
:101190004C03002080E100E00010044070B50446DC
:1011A0000D46C8888988626808432989184B1A4007
:1011B0001143084369890843606001208007844225
:1011C00006D11820FFF7ACFB2968FEF7D5FF606257
:1011D0001048844206D11A20FFF7A2FB2968FEF7C7
:1011E000CBFF60620C48844206D11C20FFF798FBBD
:1011F0002968FEF7C1FF60620848844206D11E20BC
:10120000FFF78EFB2968FEF7B7FF606270BD000034
:10121000FCE0FFFF0000044000100040001004400C
:10122000002AC26801D00A4300E08A43C2607047C6
:10123000006880B270470160704710238B4041689E
:10124000002A01D0194300E09943416070472021F2
:10125000020C01D010211046020A01D010460839B4
:10126000020901D01046091F820801D01046891ECC
:10127000420801D0881E7047081A704730B474467F
:10128000641E2578641CAB4200D21D46635D5B0082
:10129000E31830BC184702E008C8121F08C1002A32
:1012A000FAD170477047002001E001C1121F002AE7
:1012B000FBD1704710B5FFF7C3FC0C4908610C491E
:1012C000884201DD012005E00A490B4A411891429C
:1012D00003D8022000F016F810BD0849401808494C
:1012E000884201D20320F5E70420F3E70000002044
:1012F00033337340FFFF9FBF32331300CCCCACBFFE
:10130000CCCC0C00F8B51E4A1E4C95151E4E01287B
:1013100016D0022819D0032828D004280FD1702114
:101320001046FFF737FB40212046FFF729FC8021BC
:101330002046FFF72FFB29463046FFF72BFBF8BD71
:1013400070211046FFF71CFC0AE0302117461046BA
:10135000FFF716FC80212046FFF712FC40210BE02E
:1013600080212046FFF70CFC4021E1E710211746C1
:101370001046FFF705FC60213846FFF70BFBEFE74F
:1013800000200B4000000B4000400B40F8B5FFF779
:101390000BFE1D4CFF262146143101361B4D1C4F00
:1013A00006281AD0072817D1002020710520887040
:1013B000014620461430FFF7C5FE80212846FFF77E
:1013C000DFFB04213846FFF7E5FA31462846FFF7F0
:1013D000E1FAA078401CA070F8BD0120A0710420A3
:1013E0008870094805211430FFF7ACFE31462846C5
:1013F000FFF7C6FB04213846FFF7CCFA80212846C8
:10140000FFF7C8FAF8BD00000000002000200B40E4
:1014100000000B40F8B50125324E6D0329463046D9
:10142000FFF7A9FB304C002802D0E07800283AD022
:10143000642000F05FF829463046FFF79CFB002847
:1014400002D0E07800282ED0E0682946401CE060F9
:101450000120E0703046FFF78EFB002823D00021EA
:10146000E170214E20791436204D214F00281BD0E9
:1014700000F048FA6078032815D90820B0700521DB
:101480003046FFF75FFE08212846FFF779FB8021F1
:101490003846FFF775FBA9153846FFF77BFA34216C
:1014A0002846FFF777FAF8BD01202071A0780328BD
:1014B00011D90720B0700C4805211430FFF742FE07
:1014C00024212846FFF75CFBFF2181313846FFF7D6
:1014D00061FA1821E4E704480222C01D42708170BD
:1014E000C170F8BD00400B400000002000000B4020
:1014F00000200B4004E0002100BF491C0929FBD358
:10150000401EF8D2704704E0002100BF491C0329A7
:10151000FBD3401EF8D2704710B50C4C2079002840
:1015200012D0A07900280FD02146062014318870EF
:10153000204605211430FFF705FE00206070A070E2
:10154000E070E0602071607110BD000000000020BC
:1015500070B5002401202246000401231146FFF744
:10156000F9F9184D0122C0212846FFF7DFFA0122C0
:10157000C0212846FFF7EAFA03202246000401238F
:101580001146FFF7E7F9104D012270212846FFF7B9
:10159000CDFA012270212846FFF7D8FA072022460B
:1015A000000401231146FFF7D5F90122074D14026B
:1015B00021462846FFF7BAFA012221462846FFF7BE
:1015C000C5FA70BD00000B4000200B4000400B40EE
:1015D000FFF76AFB164D174E174C20680A2802D2F7
:1015E000FFF79AFFF9E72068092805D920681E2827
:1015F00002D2FFF7CBFEF0E720681D2805D920684E
:10160000502802D2FFF706FFE7E720684F2808D9E5
:1016100020685A2805D2E868B042DED9FFF7D8FF23
:10162000DBE720685928D8D9FFF744FED5E700004A
:1016300000000020102700002400002070B500F0FA
:10164000E1F8002000F0BCF9072000F0B9F900F043
:10165000D9F8012000F0B4F90A4C0025657000F0BB
:1016600073F8E070657000F06FF8A0700120607092
:1016700000F06AF8207100F00DF9A078E17800021E
:10168000401870BD2800002070B52D4C022060620B
:10169000014601222046FFF751FA0022022120468E
:1016A000FFF744FA274E0125357065622846FFF79B
:1016B0002AFF0120FFF727FF0120FFF724FF012069
:1016C000FFF721FF0120FFF71EFF0120FFF71BFF9F
:1016D0000120FFF718FF0120FFF715FF0221204628
:1016E000FFF749FA002801D0357001E00020307082
:1016F000002202212046FFF721FA01220221204682
:10170000FFF714FA0120FFF7FEFEA5620120FFF7A4
:10171000FAFE0120FFF7F7FE0120FFF7F4FE01209B
:10172000FFF7F1FE0120FFF7EEFE0120FFF7EBFED1
:101730000120FFF7E8FE0120FFF7E5FE70BD000085
:1017400000000B402800002070B50024094E2546FB
:101750006006040EFFF798FF3078012801D1641C61
:10176000E4B26D1CEDB2082DF2D300F005F820466E
:1017700070BD00002800002000B52048204A4178B4
:101780000220002937D050620120FFF7BCFE012360
:1017900053621846FFF7B7FE0120FFF7B4FE0120A1
:1017A000FFF7B1FE0120FFF7AEFE0120FFF7ABFE11
:1017B0000120FFF7A8FE0120FFF7A5FE0120FFF79B
:1017C000A2FE93620120FFF79EFE0120FFF79BFE21
:1017D0000120FFF798FE0120FFF795FE0120FFF79B
:1017E00092FE0120FFF78FFE0120FFF78CFE012003
:1017F000FFF789FE00BD9062C6E7000028000020C8
:1018000000000B4010B5224A022353620120FFF76B
:101810007AFE0120FFF777FE0120FFF774FE01201A
:10182000FFF771FE0120FFF76EFE0124546220468F
:10183000FFF769FE0120FFF766FE0120FFF763FE58
:101840000120FFF760FE0120FFF75DFE936201209B
:10185000FFF759FE0120FFF756FE0120FFF753FE68
:101860000120FFF750FE0120FFF74DFE946201209A
:10187000FFF749FE0120FFF746FE0120FFF743FE78
:101880000120FFF740FE0120FFF73DFE10BD0000E4
:1018900000000B4010B51A4A012393621846FFF767
:1018A00032FE0120FFF72FFE0120FFF72CFE012062
:1018B000FFF729FE0120FFF726FE02249462012093
:1018C000FFF721FE0120FFF71EFE0120FFF71BFEA0
:1018D0000120FFF718FE0120FFF715FE53620120DB
:1018E000FFF711FE0120FFF70EFE0120FFF70BFEB0
:1018F0000120FFF708FE0120FFF705FE546210BD2E
:1019000000000B40F8B500F04FF81630C1B2244F7C
:101910000E46397000910A213046FEF72DFC0C4628
:10192000314614303E461936C5B2B9290CD90821C2
:101930001C48FFF725F930211A48FFF72BF8787873
:10194000401C7870022022E00099A02915D22021A5
:101950001448FFF715F918211248FFF71BF8104932
:101960000320143188700E4805211430FFF7EAFB7C
:101970007878401C7870032009E010210948FFF7AF
:10198000FFF828210748FFF705F801207871B070AB
:101990000348F570347107211930FFF7D3FBF8BD08
:1019A0000000002000000B4010B5FFF747FE0521A6
:1019B000FEF7E2FB01494018C0B210BD8EF4FFFFF4
:1019C000F1B5104F0A26009C0025200601D5012004
:1019D00000E000207870FFF7CFFE60066D1C040E5B
:1019E000EDB2082DF1D3FFF74FFE3878012808D16A
:1019F000FFF750FF002E04D0761EF6B2FFF702FF6D
:101A0000E1E7F8BD28000020281A000000000020AF
:101A100034000000961200005C1A00003400002020
:101A200024080000A61200000000000000000000D2
:101A3000000000000000000000000000AA55005552
:101A4000AAAA5500000055AA0000000000000000EE
:0C1A50000000000000000000006CDC0240
:04000005000000C136
:00000001FF
