:020000040000FA
:1000000058080020C100000031090000A1080000CC
:10001000FFFFFFFFFFFFFFFFFFFFFFFFFFFFFFFFF0
:10002000FFFFFFFFFFFFFFFFFFFFFFFF5F09000074
:10003000FFFFFFFFFFFFFFFF5D090000330100002E
:1000400035010000350100003501000035010000D8
:1000500035010000350100003501000035010000C8
:1000600055030000FFFFFFFF3501000035010000D0
:10007000790800003501000035010000FFFFFFFF97
:10008000FFFFFFFF8904000035010000350100007B
:100090003501000035010000350100003501000088
:1000A000350100003D0B0000050D0000350100008A
:1000B0003501000035010000350100003501000068
:1000C0001D4880471D4880471D4800471D4801695D
:1000D000002908D14169002905D18169002902D18F
:1000E000C169002909D01848C1680901090D002912
:1000F0000ED005290CD006290AD0BFF34F8F134824
:100100001349016013491248C860BFF34F8FFEE7DF
:100110000E4801680E48884200D070470E480F49CB
:1001200001600A480E4901607047FEE7FEE7FEE7FE
:10013000FEE7FEE7FEE70000CD00000061090000D9
:100140006501000000030840800108400000002015
:100150000400FA0500ED00E0008108400100000005
:10016000000000000348854600F072F80048004790
:10017000091000005808002030B50B460146002049
:100180002022012409E00D46D5409D4205D31D469D
:100190009540491B2546954040191546521E002D95
:1001A000F1DC30BDF8B500242546002904DA0E46FE
:1001B000012400214042B141002B04DA1E460023F5
:1001C00052420125B34100F013F88C4617461E46F3
:1001D000AC4203D0002540428D41AC46002C02D0F9
:1001E000002657429E4161463A46334601B0F0BD73
:1001F000F0B51FB40646002082B0054640240191A8
:1002000000901BE0019922460F46304600F042F86C
:10021000049A059B801A994110D31046194622462C
:1002200000F028F8361A8F4101972246012000215C
:10023000009F00F01FF838184D4100902046641EC2
:100240000028DFDC019B00982946324607B0F0BD4C
:10025000064C0125064E05E0E36807CC2B430C3C19
:1002600098471034B442F7D3FFF780FF1C1000000A
:100270003C10000010B5202A04DB0146203A9140D2
:10028000002010BD914020239C1A0346E3401943EF
:10029000904010BD10B5202A04DB0846203AD0401B
:1002A000002110BD0B46D340D0402024A21A91401B
:1002B0000843194610BD8030C16070478022002974
:1002C000016801D0114300E09143016070470000D4
:1002D00070B500240120224680040123114600F05D
:1002E0006DF901256D0200222946174800F052FAE7
:1002F00069018A020123204600F060F902222946A2
:10030000104600F067F80621102000F06BF90F4C42
:10031000002301221946204600F03BF80021204628
:1003200000F04BF800220B21204600F024F80121B8
:10033000204600F03BF801221146204600F012F85A
:100340000349A015086070BD00400B40000001404B
:1003500000E100E010B501210148FFF7ACFF10BD3E
:10036000000001408030002A026801D00A4300E00A
:100370008A4302607047930810B59B0018184368C1
:100380009207D20E1F249440A34391400B43436035
:1003900010BD5B1E12021B04FF3A013A13430B43CC
:1003A0000168802211400B4303607047CA06D20ED9
:1003B0000267490949014167704701627047002996
:1003C000416F02D00122114301E049084900416711
:1003D00070470000F0B596460A461349C00046181B
:1003E00000230025FF2098402C46104216D0002004
:1003F000012199408C461146C1406746394206D0DA
:1004000087000F21B9400D437146B9400C43401C91
:100410000828F0D33068A843204330600833361DE5
:10042000082BDEDDF0BD00002020024070B5002565
:100430000122294612040123084600F0BFF80120DA
:100440000E49400408600E4C0121204600F03AF8A5
:100450000C487D22D200006800232946FFF7A2FE47
:100460000146204600F038F80021204600F036F81A
:100470000121204600F01DF870BD000000E100E001
:10048000006007403000002010B5044800F00AF872
:1004900003480168491C016010BD0000006007406E
:1004A000200000204168490849004160BFF34F8F98
:1004B000704704220029016801D0114300E09143F4
:1004C000016070470029016802D00122114301E058
:1004D0004908490001607047C160704781607047FA
:1004E00070B5184D0446686B4607760F00F02EF87D
:1004F00015492060330000F0DCFC081405070714E0
:10050000140E1114606000E06160296A60680529BA
:1005100009D3400908E00120C003F3E77D20000271
:10052000F0E70020EEE7C840A060A96A4903490F40
:10053000072902D0C840E06070BD0321FFF71CFE10
:10054000F9E700000080084000127A000C490868B2
:10055000C869C20F4868400AC007C00F0ED00948DA
:10056000002A0BD18869C00D0007000F00D11020B0
:100570008969044A4902890F5043C8407047000006
:100580000080084000127A001FB541090A4A89001C
:100590008A1800212E2800D10221C006C00E126840
:1005A000032383401A40C24054186846FFF798FF5F
:1005B000029804B0E04010BD38800840F0B5084F04
:1005C0007C6AFD6A3E6B84438D439643002B02D0C8
:1005D00004430D4316437C62FD623E63F0BD0000A0
:1005E0000080084010B5044CA26A072383409A4358
:1005F00081400A43A26210BD0080084081627047BA
:1006000070B5072001210022000489030123FFF7B0
:10061000D5FF5D4C01212046FFF7F0FF0122114676
:10062000204600F0B7F802212046FFF7E7FF01223D
:100630000221204600F0AEF804212046FFF7DEFF3D
:1006400001220421204600F0A5F808212046FFF7EA
:10065000D5FF01220821204600F09CF810212046F9
:10066000FFF7CCFF01221021204600F093F8202153
:100670002046FFF7C3FF01222021204600F08AF820
:1006800040212046FFF7BAFF01224021204600F01A
:1006900081F880212046FFF7B1FF0122802120460A
:1006A00000F078F8A615394C31462046FFF7A6FF32
:1006B00001223146204600F06DF8354D01212846D3
:1006C000FFF79CFF01221146284600F063F8022143
:1006D0002846FFF793FF01220221284600F05AF82E
:1006E00004212846FFF78AFF01220421284600F052
:1006F00051F810212846FFF781FF012210212846DA
:1007000000F048F820212846FFF778FF0122202139
:10071000284600F03FF840212846FFF76FFF0122EE
:100720004021284600F036F880212846FFF766FF72
:1007300001228021284600F02DF831462846FFF797
:100740005DFF01223146284600F024F8760131464B
:100750002046FFF753FF01223146204600F022F8E1
:1007600000223146204600F015F808212846FFF700
:1007700045FF01220821284600F014F80022082134
:10078000284600F007F870BD00000B4000400B4009
:1007900000200B40002A026801D00A4300E08A438F
:1007A00002607047002A426801D00A4300E08A4391
:1007B00042607047002A08D0012A09D082688A4323
:1007C0008260C2688A43C260704782680A43F7E762
:1007D000C2680A43C26082688A438260704741628D
:1007E00070470000F0B500242546FF260136294653
:1007F00085B0324601230846FFF7E0FE1A487D2205
:10080000D200006800232946FFF7CCFC401E174F9A
:10081000049000E0641C611C0498FFF7ADFCB84232
:10082000F8D8611C0498FFF7A7FC6A461080548032
:1008300015710F4C029596816946204600F026F905
:100840003146204600F00AF901223146204600F0E8
:1008500014F90121074A090311600121204600F023
:1008600002F905B0F0BD000030000020FFFF0000DD
:1008700000E0064000E100E010B5FF21013106482C
:1008800000F0ECF805480168491C01600168642922
:1008900001D90021016010BD00E006402C000020BD
:1008A000FEE7000010B5FFF7ABFEFFF7BFFDFFF757
:1008B0000FFD00F069FB012000F018FB194C01212D
:1008C0002046FFF7FBFC01212046FFF778FD00F0F2
:1008D000FDF800F0E1F9FFF785FF134C204600F02A
:1008E00049FB042000F002FB204600F043FB0320FC
:1008F00000F0FCFA204600F03DFB022000F0F6FA82
:10090000204600F037FB012000F0F0FA07480021F4
:1009100001618170C1700171C1604171C1718171EA
:1009200010BD000000000140A08601000000002072
:10093000FEE70000C106C90E012088400149086099
:100940007047000080E100E0C106C90E0120884028
:10095000014908607047000000E100E0FEE7FEE7A3
:10096000F0B539491020C860384A01201060384974
:10097000086B4025284308633648002344158668E1
:10098000272EFCD100E044604668B605FBD500E0A8
:1009900043604668B605FBD41360486A032292029E
:1009A0009043486248680122D20210434860886838
:1009B000C008C007FBD04868C008C000C01C486021
:1009C000486B4007400F0328FAD1234A1068C0083B
:1009D000C000401C10600B624868A0434860086873
:1009E0009615304308604868171538434860886892
:1009F0008008C007FBD0086BA84308630868B043B1
:100A000008600320000688614868204348608868C1
:100A10004008C007FBD01068C008C000801C1060F0
:100A20000B624868C008C000401C4860486B400723
:100A3000400F0128FAD11068102108431060106897
:100A4000090208431060F0BD00810840008308409F
:100A50000080084000A1064000020840C943C16769
:100A6000BFF34F8F70470029016902D00122114363
:100A700001E04908490001617047002A426F01D036
:100A80000A4300E08A4342677047000010B50246FF
:100A90000B88803293604B885360036803242404DE
:100AA000A3430360036801242406A343036003688F
:100AB0008C6823430360044B984201D10B79D360C7
:100AC0008989816710BD000000C002403EB5002446
:100AD00011212246890201231046FFF76FFD0622ED
:100AE00010210220FFF776FC062220210220FFF7CA
:100AF00071FCE12040020090FF20013069468880AF
:100B0000CC800C814C810C4C204600F079F90122FC
:100B10001146204600F0C3F901220021204600F0D2
:100B2000BEF901221146204600F0ACF91920FFF76A
:100B30000BFF00F079F83EBD00100040F8B5324ED2
:100B40003069C00519D5314CA088002840D0002557
:100B5000E71FF93F6088395C304600F09EF9A078C5
:100B6000401CC0B26080A088401E0004000CA08021
:100B700003D06D1C2D042D0CECD02021304600F04C
:100B800039F9002823D0304600F084F9C2B2FF259D
:100B90001F4801351F4C204E012A1FD0002A16D1B4
:100BA0001E4A002111700521817000F0F7F88021A4
:100BB0002046FFF714FE04213046FFF71FFD2946AB
:100BC0002046FFF71BFD16490878401C0870F8BD49
:100BD00000220421304600F055F9CEE7114A0121E8
:100BE0001170042181700521094800F0D7F82946C9
:100BF0002046FFF7F4FD04213046FFF7FFFC80217B
:100C00002046FFF7FBFCF8BD001000403C0200202E
:100C10002400002000200B4000000B4005000020B5
:100C200003000020070000200549002048800880BC
:100C30008880FF3109314880088088807047000033
:100C400034010020F8B5124C0D46E71F0646F93F67
:100C500010E02188307878542078761C401CC0B28F
:100C600020801920FFF766FEA088401CA080192074
:100C7000FFF76AFE28466D1EEDB20028E9D1A08874
:100C8000002804D001220421024800F0FBF8F8BD3E
:100C90003C020020001000403EB5002409212246FD
:100CA000C90201231046FFF789FC0121062209032E
:100CB0000220FFF78FFBE12040020090FF2001306F
:100CC00069468880CC800C814C810C4C204600F019
:100CD00097F801221146204600F0E1F80122002198
:100CE000204600F0DCF801221146204600F0CAF848
:100CF0000349A003086000F043F83EBD0010044023
:100D000000E100E0F8B51B4E3069C00519D51A4C5A
:100D1000A088002828D00025E71FF93F6088395CAB
:100D2000304600F0BAF8A078401CC0B26080A088BD
:100D3000401E0004000CA08003D06D1C2D042D0C5F
:100D4000ECD03169304689060DD500F0A3F80B4987
:100D50000A88CB1FF93B98540878401CC0B2088021
:100D60008888401C8880F8BD00220421304600F0AD
:100D700089F8E6E7001004404C04002044030020FA
:100D800005490020488008808880FF31093148806B
:100D900008808880704700004403002070B5114A25
:100DA00012E01488104D03782B5513780F4C5B1C00
:100DB000DBB2138001239B0623609488641C94801B
:100DC0000A4C803C2360401C0B46491EC9B2002BD4
:100DD000E7D19088002804D001220421044800F0C3
:100DE00051F870BD4C0400204C03002080E100E06D
:100DF000001004400069084000D001207047000046
:100E000070B504460D46C8888988626808432989F8
:100E1000184B1A4011430843698908436060012058
:100E20008007844206D11820FFF7AEFB2968FFF740
:100E3000A3F960621048844206D11A20FFF7A4FB90
:100E40002968FFF799F960620C48844206D11C209A
:100E5000FFF79AFB2968FFF78FF960620848844220
:100E600006D11E20FFF790FB2968FFF785F9606225
:100E700070BD0000FCE0FFFF0000044000100040D7
:100E800000100440002AC26801D00A4300E08A43EF
:100E9000C2607047006880B27047016070471023DD
:100EA0008B404168002A01D0194300E0994341601A
:100EB000704730B47446641E2578641CAB4200D27F
:100EC0001D46635D5B00E31830BC184702E008C8AC
:100ED000121F08C1002AFAD170477047002001E0B4
:100EE00001C1121F002AFBD170470000F8B51E4A4D
:100EF0001E4C95151E4E012816D0022819D0032825
:100F000028D004280FD170211046FFF777FB40212D
:100F10002046FFF764FC80212046FFF76FFB29463F
:100F20003046FFF76BFBF8BD70211046FFF757FC0A
:100F30000AE0302117461046FFF751FC8021204679
:100F4000FFF74DFC40210BE080212046FFF747FCD6
:100F50004021E1E7102117461046FFF740FC6021D1
:100F60003846FFF74BFBEFE700200B4000000B403B
:100F700000400B4004E0002100BF491C0929FBD3BD
:100F8000401EF8D27047000070B5002401202246B0
:100F9000000401231146FFF711FB184D0122C02167
:100FA0002846FFF7F7FB0122C0212846FFF702FC85
:100FB00003202246000401231146FFF7FFFA104DDB
:100FC000012270212846FFF7E5FB01227021284607
:100FD000FFF7F0FB07202246000401231146FFF72C
:100FE000EDFA0122074D140221462846FFF7D2FBF5
:100FF000012221462846FFF7DDFB70BD00000B40B3
:1010000000200B4000400B40FFF74CFC042102483D
:10101000FFF718FEFAE70000080000203C1000006F
:101020000000002034000000CC0E00007010000012
:101030003400002024080000DC0E00000300000043
:1010400000000000AA0000000000000000000000F6
:10105000AA550055AAAA5500000055AA0000000094
:10106000AA550055AA00000000000000006CDC0238
:04000005000000C136
:00000001FF
