:020000040000FA
:1000000040080020C1000000150D00009D0C0000FC
:10001000FFFFFFFFFFFFFFFFFFFFFFFFFFFFFFFFF0
:10002000FFFFFFFFFFFFFFFFFFFFFFFF190D0000B6
:10003000FFFFFFFFFFFFFFFF170D00003301000070
:1000400035010000350100003501000035010000D8
:1000500035010000350100003501000035010000C8
:10006000ED060000FFFFFFFF350100003501000035
:10007000110C00003501000035010000FFFFFFFFFB
:10008000FFFFFFFF210800003501000035010000DF
:100090003501000035010000350100003501000088
:1000A00035010000FD0E00000110000035010000C8
:1000B0003501000035010000350100003501000068
:1000C0001D4880471D4880471D4800471D4801695D
:1000D000002908D14169002905D18169002902D18F
:1000E000C169002909D01848C1680901090D002912
:1000F0000ED005290CD006290AD0BFF34F8F134824
:100100001349016013491248C860BFF34F8FFEE7DF
:100110000E4801680E48884200D070470E480F49CB
:1001200001600A480E4901607047FEE7FEE7FEE7FE
:10013000FEE7FEE7FEE70000CD0000001D0D000019
:100140006501000000030840800108400000002015
:100150000400FA0500ED00E0008108400100000005
:10016000000000000348854600F032FA00480047CE
:10017000D51200004008002030B50B460146002093
:100180002022012409E00D46D5409D4205D31D469D
:100190009540491B2546954040191546521E002D95
:1001A000F1DC30BDF8B500242546002904DA0E46FE
:1001B000012400214042B141002B04DA1E460023F5
:1001C00052420125B34100F033F98C4617461E46D2
:1001D000AC4203D0002540428D41AC46002C02D0F9
:1001E000002657429E4161463A46334601B0F0BD73
:1001F000F0B51FB488B00B990998002448400999BC
:10020000C00F490049080991C0070B9900904900A7
:1002100049080B9109990898A64608431CD00B99E8
:100220000A98084318D0099801244000420D48005C
:10023000410D099824050003000B204309900B98F9
:100240000003000B20430B9050181C49401800225B
:1002500001901446104605E0002001460DB0F0BDA7
:10026000032801DA034600E003239C46C11A0AAEC4
:100270000AE05F0008ADED5B4F00F75B7D430027B0
:10028000AA187C41491C5B1E6145F2DD410004ABAC
:100290005A522104120C0A43240C401C0828DFDBAC
:1002A000019802900099704601910090059B049A74
:1002B0000799069800F03AF9D0E700000DFCFFFF1F
:1002C000F0B50C465C4085B0E40FE40703944C00A5
:1002D00000266408590094464908024602962243C3
:1002E00021D062460A431ED06200570D4A000E0319
:1002F0002303550D012402462C492405781B1B0BB2
:10030000360B401823432643614600901C46501A82
:10031000B44103D30098401C009002E0921800986A
:100320005B41002803DA0020014605B0F0BD002043
:10033000012109050746864611E064461D46141B47
:10034000B54106D36546521BB341744607430C437F
:10035000A646CD0740084908284392185B41054648
:100360000D43EAD11046184313D060461946504059
:100370007140084306D06046101AB34106D20122EC
:10038000002306E000220123DB0702E00122D24322
:100390005310009874460105381C6141029C039D6E
:1003A0000019694100F0B5F8BFE70000FD03000047
:1003B00070B54B005B0803430BD04B005C0D00266F
:1003C00033466542B341D417AD1AA34102DB002086
:1003D000014670BD12053018514170BD0EB505497A
:1003E0000291002100910A460B46019100F09EF80F
:1003F00003B000BD33040000CB0FDB07490010B58C
:10040000490802460A4307D00A0D07240903E401FC
:10041000090B121B002A01DC002010BDC900440F8B
:100420000C43C100E018D205801800F031F810BD6F
:10043000F0B51FB40646002082B005464024019165
:1004400000901BE0019922460F46304600F0E2F88A
:10045000049A059B801A994110D3104619462246EA
:1004600000F0C8F8361A8F4101972246012000217A
:10047000009F00F0BFF838184D4100902046641EE0
:100480000028DFDC019B00982946324607B0F0BD0A
:10049000002904DA401C490001D14008400070479F
:1004A00070B40024050C05D11024000402D10029E9
:1004B00021D01124050E01D100020834050F01D10D
:1004C0000001241D850F01D18000A41C002801DB40
:1004D0004000641C002908D020252E1B0D46F54045
:1004E000A14000D001212943084301061B1B000A3B
:1004F000DB1D02D5002070BC7047DB051818801882
:100500000029F8DA401C4900F5D170BC40084000D1
:10051000704710B5002B08DA0024401C6141921886
:100520005B411A4301D14008400010BDF0B51FB433
:1005300082B005460C0003D0084600F006FE02E03B
:1005400000F003FE2030024600902146284600F0CD
:1005500051F8049B059A04460F461843114308437B
:1005600014D0184610431BD0009840210A1A184690
:10057000059900F04FF805460E46009A0599049833
:1005800000F038F8084305D0012004E02046394641
:1005900007B0F0BD0020C11705430E432C4337437D
:1005A00000990E986305401A7905E40A00220C436D
:1005B000FD0A0A3002D500200146E9E701051019BD
:1005C00069410C9C0D9D00196941FFF7A2FFDFE70F
:1005D000064C0125064E05E0E36807CC2B430C3C96
:1005E00098471034B442F7D3FFF7C0FD301600002F
:1005F0005016000010B5202A04DB0146203A914035
:10060000002010BD914020239C1A0346E34019436B
:10061000904010BD10B5202A04DB0846203AD04097
:10062000002110BD0B46D340D0402024A21A914097
:100630000843194610BD8030C160704780220029F0
:10064000016801D0114300E0914301607047000050
:1006500070B500240120224680040123114600F0D9
:1006600079F901256D0200222946174800F05AFA4F
:1006700069018A020123204600F06CF90222294612
:10068000104600F073F80621102000F077F90F4CA7
:10069000002301221946204600F047F80021204699
:1006A00000F057F800220B21204600F030F801211D
:1006B000204600F047F801221146204600F01EF8BF
:1006C0000349A015086070BD00400B4000000140C8
:1006D00000E100E089000818006B80B270478030AC
:1006E0004068084000D001207047000010B501218B
:1006F0000148FFF7A0FF10BD000001408030002A34
:10070000026801D00A4300E08A4302607047930800
:1007100010B59B00181843689207D20E1F2494400E
:10072000A34391400B43436010BD5B1E12021B04A8
:10073000FF3A013A13430B430168802211400B43F7
:1007400003607047CA06D20E026749094901416732
:100750007047016270470029416F02D001221143A6
:1007600001E049084900416770470000F0B596462E
:100770000A461349C000461800230025FF20984070
:100780002C46104216D00020012199408C4611467B
:10079000C1406746394206D087000F21B9400D435A
:1007A0007146B9400C43401C0828F0D33068A84378
:1007B000204330600833361D082BDEDDF0BD00001D
:1007C0002020024070B50025012229461204012391
:1007D000084600F0BFF801200E49400408600E4CA6
:1007E0000121204600F03AF80C487D22D200006832
:1007F00000232946FFF7D6FC0146204600F038F8D2
:100800000021204600F036F80121204600F01DF8B6
:1008100070BD000000E100E000600740180000200B
:1008200010B5044800F00AF803480168491C01604B
:1008300010BD000000600740080000204168490822
:1008400049004160BFF34F8F7047042200290168BF
:1008500001D0114300E09143016070470029016815
:1008600002D00122114301E04908490001607047AC
:10087000C16070478160704770B5184D0446686B61
:100880004607760F00F02EF815492060330000F07F
:1008900073FC081405070714140E1114606000E0BF
:1008A0006160296A6068052909D3400908E00120D0
:1008B000C003F3E77D200002F0E70020EEE7C84028
:1008C000A060A96A4903490F072902D0C840E06027
:1008D00070BD0321FFF750FCF9E7000000800840DD
:1008E00000127A000C490868C869C20F4868400ABB
:1008F000C007C00F0ED00948002A0BD18869C00D6F
:100900000007000F00D110208969044A4902890FAD
:100910005043C840704700000080084000127A0031
:100920001FB541090A4A89008A1800212E2800D1E2
:100930000221C006C00E1268032383401A40C24041
:1009400054186846FFF798FF029804B0E04010BDC5
:1009500038800840F0B5084F7C6AFD6A3E6B8443DE
:100960008D439643002B02D004430D4316437C6213
:10097000FD623E63F0BD00000080084010B5044CED
:10098000A26A072383409A4381400A43A26210BDB2
:10099000008008408162704770B507200121002265
:1009A000000489030123FFF7D5FF5B4C012120469A
:1009B000FFF7F0FF01221146204600F0B3F80221B4
:1009C0002046FFF7E7FF01220221204600F0AAF8A7
:1009D00004212046FFF7DEFF01220421204600F01B
:1009E000A1F808212046FFF7D5FF01220821204663
:1009F00000F098F810212046FFF7CCFF01221021CB
:100A0000204600F08FF820212046FFF7C3FF012287
:100A10002021204600F086F840212046FFF7BAFF4B
:100A200001224021204600F07DF880212046FFF77A
:100A3000B1FF01228021204600F074F8374DA41543
:100A400021462846FFF7A6FF01222146284600F04E
:100A500069F8334E01213046FFF79CFF0122114611
:100A6000304600F05FF802213046FFF793FF012285
:100A70000221304600F056F804213046FFF78AFF85
:100A800001220421304600F04DF808213046FFF7DE
:100A900081FF01220821304600F044F81021304641
:100AA000FFF778FF01221021304600F03BF82021AB
:100AB0003046FFF76FFF01222021304600F032F868
:100AC00040213046FFF766FF01224021304600F00A
:100AD00029F880213046FFF75DFF01228021304652
:100AE00000F020F821463046FFF754FF012221464E
:100AF000304600F017F8640121462846FFF74AFF08
:100B000001222146284600F015F8002221462846F9
:100B100000F008F870BD000000000B4000400B40E2
:100B200000200B40002A026801D00A4300E08A43FB
:100B300002607047002A426801D00A4300E08A43FD
:100B400042607047002A08D0012A09D082688A438F
:100B50008260C2688A43C260704782680A43F7E7CE
:100B6000C2680A43C26082688A4382607047C06973
:100B7000084000D00120704741627047F0B5002462
:100B80002546FF260136294685B032460123084610
:100B9000FFF7E0FE1A487D22D200006800232946B4
:100BA000FFF700FB401E174F049000E0641C611C1F
:100BB0000498FFF7E1FAB842F8D8611C0498FFF7EF
:100BC000DBFA6A461080548015710F4C02959681AD
:100BD0006946204600F038F93146204600F01CF9FD
:100BE00001223146204600F026F90121074A090377
:100BF00011600121204600F014F905B0F0BD00009D
:100C000018000020FFFF000000E0064000E100E0C7
:100C100010B5FF210131064800F0FEF805480168D3
:100C2000491C01600168642901D90021016010BDDF
:100C300000E006400C00002070B50025134E2C4645
:100C400001213046FFF787FD01213046FFF747FDC0
:100C50000028F9D100213046FFF73CFD641C4519FE
:100C6000E4B20A2CECD32846FFF7B8FB084A094B3C
:100C7000FFF7BEFA0B22D243FFF79AFB0022064B86
:100C8000FFF71EFBFFF7B8FB70BD0000000001403E
:100C90006666666666661A4000002440FEE700004D
:100CA00010B5FFF779FEFFF78DFDFFF7D1FC00F0DF
:100CB000D1FA012000F07CFA144C01212046FFF704
:100CC000BDFC01212046FFF746FD00F0DDF800F0F5
:100CD00061F9FFF753FF0E4C204600F0A9FA0420FB
:100CE00000F066FA204600F0A3FA032000F060FA54
:100CF000204600F09DFA022000F05AFA204600F04B
:100D000097FA012000F054FA10BD000000000140E5
:100D1000A0860100FEE7FEE7FEE70000F0B53949D6
:100D20001020C860384A012010603849086B4025FF
:100D3000284308633648002344158668272EFCD1D3
:100D400000E044604668B605FBD500E043604668B5
:100D5000B605FBD41360486A0322920290434862AE
:100D600048680122D202104348608868C008C00762
:100D7000FBD04868C008C000C01C4860486B4007F2
:100D8000400F0328FAD1234A1068C008C000401C55
:100D900010600B624868A0434860086896153043AD
:100DA0000860486817153843486088688008C0079D
:100DB000FBD0086BA84308630868B04308600320B1
:100DC0000006886148682043486088684008C0077A
:100DD000FBD01068C008C000801C10600B6248681F
:100DE000C008C000401C4860486B4007400F012805
:100DF000FAD11068102108431060106809020843F6
:100E00001060F0BD00810840008308400080084069
:100E100000A1064000020840C943C167BFF34F8FDD
:100E200070470029016902D00122114301E04908FD
:100E3000490001617047002A426F01D00A4300E077
:100E40008A4342677047000010B502460B88803223
:100E500093604B885360036803242404A343036016
:100E6000036801242406A343036003688C682343BA
:100E70000360044B984201D10B79D3608989816763
:100E800010BD000000C002403EB5002411212246E2
:100E9000890201231046FFF75DFD06221021022082
:100EA000FFF764FC062220210220FFF75FFCE1200F
:100EB00040020090FF20013069468880CC800C8180
:100EC0004C810C4C204600F0E7F8012211462046E8
:100ED00000F031F901220021204600F02CF9012216
:100EE0001146204600F01AF903496003086000F03B
:100EF00043F83EBD0010004000E100E0F8B51B4E95
:100F00003069C00519D51A4CA088002828D00025C2
:100F1000E71FF93F6088395C304600F00AF9A07895
:100F2000401CC0B26080A088401E0004000CA0805D
:100F300003D06D1C2D042D0CECD031693046890690
:100F40000DD500F0F3F80B490A88CB1FF93B9854F4
:100F50000878401CC0B208808888401C8880F8BD92
:100F600000220421304600F0D9F8E6E700100040E6
:100F7000240200201C010020054900204880088030
:100F80008880FF31093148800880888070470000E0
:100F90001C0100203EB5002409212246C90201237C
:100FA0001046FFF7D7FC0121062209030220FFF7B4
:100FB000DDFBE12040020090FF200130694688807F
:100FC000CC800C814C810C4C204600F065F801224D
:100FD0001146204600F0AFF801220021204600F023
:100FE000AAF801221146204600F098F80349A00310
:100FF000086000F043F83EBD0010044000E100E04E
:10100000F8B51B4E3069C00519D51A4CA0880028C8
:1010100028D00025E71FF93F6088395C304600F092
:1010200088F8A078401CC0B26080A088401E0004F0
:10103000000CA08003D06D1C2D042D0CECD0316968
:10104000304689060DD500F071F80B490A88CB1F90
:10105000F93B98540878401CC0B208808888401C2E
:101060008880F8BD00220421304600F057F8E6E7FA
:1010700000100440340400202C0300200549002007
:10108000488008808880FF31093148800880888046
:10109000704700002C03002070B504460D46C88838
:1010A0008988626808432989184B1A40114308430C
:1010B00069890843606001208007844206D11820B6
:1010C000FFF72EFC2968FFF757F86062104884424A
:1010D00006D11A20FFF724FC2968FFF74DF860625B
:1010E0000C48844206D11C20FFF71AFC2968FFF740
:1010F00043F860620848844206D11E20FFF710FCC6
:101100002968FFF739F8606270BD0000FCE0FFFF5E
:10111000000004400010004000100440002AC26893
:1011200001D00A4300E08A43C2607047006880B281
:1011300070470160704710238B404168002A01D03E
:10114000194300E09943416070472021020C01D00F
:1011500010211046020A01D010460839020901D0B8
:101160001046091F820801D01046891E420801D08E
:10117000881E7047081A704730B47446641E25787C
:10118000641CAB4200D21D46635D5B00E31830BCBB
:10119000184702E008C8121F08C1002AFAD1704798
:1011A0007047002001E001C1121F002AFBD17047E7
:1011B000F8B51C4A1C4C95151C4E012816D0022867
:1011C00017D0032823D004280FD170211046FFF731
:1011D000E1FB40212046FFF7CFFC80212046FFF7AE
:1011E000D9FB29463046FFF7D5FBF8BD70211046E4
:1011F00005E030211046FFF7BFFC80212046FFF7B5
:10120000BBFC80212046FFF7B7FC4021E6E7102118
:1012100017461046FFF7B0FC60213846FFF7BAFBCF
:10122000EFE7000000200B4000000B4000400B40A7
:1012300004E0002100BF491C0929FBD3401EF8D25D
:10124000704704E0002100BF491C0329FBD3401E66
:10125000F8D2704770B50024012022460004012313
:101260001146FFF777FB184D0122C0212846FFF7F2
:1012700059FC0122C0212846FFF764FC03202246C6
:10128000000401231146FFF765FB104D0122702178
:101290002846FFF747FC012270212846FFF752FC41
:1012A00007202246000401231146FFF753FB0122C9
:1012B000074D140221462846FFF734FC012221463F
:1012C0002846FFF73FFC70BD00000B4000200B409C
:1012D00000400B40FFF7E4FC094C0A4D206832281F
:1012E00006D920685A2803D200F072F92870F5E771
:1012F00020685A28F2D9FFF79FFC6860EEE70000EB
:101300000C0000200000002070B500F0E1F8002083
:1013100000F06AF9072000F067F900F0D9F8012021
:1013200000F062F90A4C0025657000F073F8E07077
:10133000657000F06FF8A0700120607000F06AF82E
:10134000207100F00DF9A078E1780002401870BD1E
:101350001000002070B52D4C022060620146012271
:101360002046FFF7E7FB002202212046FFF7DAFBC9
:10137000274E0125357065622846FFF762FF012080
:10138000FFF75FFF0120FFF75CFF0120FFF759FF28
:101390000120FFF756FF0120FFF753FF0120FFF761
:1013A00050FF0120FFF74DFF02212046FFF7DFFB32
:1013B000002801D0357001E00020307000220221A9
:1013C0002046FFF7B7FB012202212046FFF7AAFBC8
:1013D0000120FFF736FFA5620120FFF732FF012051
:1013E000FFF72FFF0120FFF72CFF0120FFF729FF58
:1013F0000120FFF726FF0120FFF723FF0120FFF761
:1014000020FF0120FFF71DFF70BD000000000B4012
:101410001000002070B50024094E25466006040E19
:10142000FFF798FF3078012801D1641CE4B26D1CED
:10143000EDB2082DF2D300F005F8204670BD000093
:101440001000002000B52048204A417802200029E1
:1014500037D050620120FFF7F4FE01235362184693
:10146000FFF7EFFE0120FFF7ECFE0120FFF7E9FE9A
:101470000120FFF7E6FE0120FFF7E3FE0120FFF762
:10148000E0FE0120FFF7DDFE0120FFF7DAFE9362A8
:101490000120FFF7D6FE0120FFF7D3FE0120FFF762
:1014A000D0FE0120FFF7CDFE0120FFF7CAFE01208C
:1014B000FFF7C7FE0120FFF7C4FE0120FFF7C1FEC2
:1014C00000BD9062C6E700001000002000000B4045
:1014D00010B5224A022353620120FFF7B2FE012019
:1014E000FFF7AFFE0120FFF7ACFE0120FFF7A9FEDA
:1014F0000120FFF7A6FE012454622046FFF7A1FE5B
:101500000120FFF79EFE0120FFF79BFE0120FFF761
:1015100098FE0120FFF795FE93620120FFF791FEF0
:101520000120FFF78EFE0120FFF78BFE0120FFF761
:1015300088FE0120FFF785FE94620120FFF781FEFF
:101540000120FFF77EFE0120FFF77BFE0120FFF761
:1015500078FE0120FFF775FE10BD000000000B4073
:1015600010B51A4A012393621846FFF76AFE01205C
:10157000FFF767FE0120FFF764FE0120FFF761FE21
:101580000120FFF75EFE022494620120FFF759FE5E
:101590000120FFF756FE0120FFF753FE0120FFF761
:1015A00050FE0120FFF74DFE53620120FFF749FE78
:1015B0000120FFF746FE0120FFF743FE0120FFF761
:1015C00040FE0120FFF73DFE546210BD00000B40BD
:1015D00010B5FFF799FE0521FEF7CEFD0149401831
:1015E000C0B210BD8EF4FFFFF1B5104F0A26009C6B
:1015F0000025200601D5012000E000207870FFF7CB
:1016000021FF60066D1C040EEDB2082DF1D3FFF72B
:10161000A1FE3878012808D1FFF7A2FF002E04D0E0
:10162000761EF6B2FFF754FFE1E7F8BD1000002088
:1016300050160000000000201C0000009211000065
:101640006C1600001C00002024080000A2110000FD
:10165000000000000000000000000000000000008A
:0C1660000000000000000000006CDC0234
:04000005000000C136
:00000001FF
